:060000000A128A11062815
:10000C0083134C3084006A300A128A1506260A12B1
:10001C008A1183010A128A11CE2BF5002F2875083C
:10002C0084000A128A1500200A128A110A128A15F3
:10003C002E260A128A110130F3007308F50741309D
:10004C00F400EE30F300F30B2928F40B292864009C
:10005C002F28750884000A128A1500200A128A11AA
:10006C000038031D3A283B2815283C280800F601C7
:10007C00F11F412842284B28F009F109F00A031915
:10008C00F10AF6010314F60D4B28F31F4E284F28E6
:10009C005928F209F309F20A0319F30A0130F400A2
:1000AC007408F6065928F701F80171087004031951
:1000BC00602861289F28F5010314F50D7128013083
:1000CC000310F00DF10DFF3E031D66280130F40006
:1000DC007408F5077128F11F74287528652877288E
:1000EC00772801300310F70DF80DFF3E031D78281B
:1000FC0071087302031D842870087202031C872880
:10010C00882890287008F2027108031CF303F3028C
:10011C007714902801300310F10CF00CFF3E031DF6
:10012C0091280130F502031D9C289D2877289F28D3
:10013C009F287608031DA328A928F709F809F70AB0
:10014C000319F80AA9287808F101F1077708F001DA
:10015C00F007B02808007308031DB528BD287208E5
:10016C0071047004031DBB28BC28D328BD280030A3
:10017C00F0000030F1000030F2002B292B29D3289D
:10018C000130F5007508F30701300310F20CF10C87
:10019C00F00CFF3E031DCB28D328FE307205031D47
:1001AC00D828D928C628F128F1280130F50075087F
:1001BC00F3070130F007003003180130F10700306D
:1001CC0003180130F20701300310F20CF10CF00CA3
:1001DC00FF3E031DEA28FF307205031DF628F728A1
:1001EC00DB28042904290130F30201300310F00D3F
:1001FC00F10DF20DFF3E031DFC280429F11F072908
:10020C000829F92873180B290C291229FF30F0053D
:10021C007F30F105FF30F2050310F30C7308F50085
:10022C00F601F70110300310F50DF60DF70DFF3E3A
:10023C00031D19297508F0047608F1047708F204F7
:10024C007408031D2A292B29F2170800C5308312C4
:10025C0003139F004130FD00EE30FC00FC0B3429F1
:10026C00FD0B34296400831603131E08FC00FD01EA
:10027C007C0883120313D8007D08D9001E08FC00EB
:10028C00FD017C08DA007D08DB005A08FD00FC014A
:10029C007C08DA007D08DB0058085A07E80059088A
:1002AC000318590A5B07E9006908F901F90768089E
:1002BC00F801F8070A128A1542260A128A117808E0
:1002CC0083120313CC007908CD007A08CE00C0301D
:1002DC00BA007F30BB004430BC000030AA00A03014
:1002EC00AB004030AC004C08AD004D08AE004E08E1
:1002FC00AF000A128A11B1240A128A118312031355
:10030C002A08BD002B08BE002C08BF000A128A1157
:10031C0006230A128A11831203133A08D2003B08EF
:10032C00D3003C08D4000030AA00C830AB004230E7
:10033C00AC005208AD005308AE005408AF000A12CE
:10034C008A11B1240A128A11831203132A08CF00CE
:10035C002B08D0002C08D100080078088312031356
:10036C00A0007908A1007A08A2000310210D220D2B
:10037C00A3002308A900A908031DC529C629D02953
:10038C000030FB000030FA000030F9000030F800BB
:10039C00582A582A7808A0007908A1007A08A200E7
:1003AC0017300310A20CA10CA00CFF3E031DD72983
:1003BC002008A3002308A400F917FF30F805FF302C
:1003CC00F9050030FA057808A5007908A6007A0826
:1003DC00A700A8018E30A902A91FF529F6291B2A0E
:1003EC002908803A8F3E0318FC29FD29082A003081
:1003FC00FB000030FA000030F9000030F800582AF9
:10040C00582A082A01300310A80CA70CA60CA50C1E
:10041C00FF3E031D092A0130A0002008A907031D77
:10042C00182A192A082A3F2A3F2A18302902031CA5
:10043C00202A212A382A0030FB000030FA00003034
:10044C00F9000030F800582A582A382A0130A00048
:10045C000310A50DA60DA70DA80DA00B2E2A01307B
:10046C00A902382AA908031D3C2A3D2A2C2A3F2A16
:10047C003F2A2408031D432A4F2AA509A609A709C8
:10048C00A809A50A0319A60A0319A70A0319A80A99
:10049C004F2A2808FB002708FA002608F90025082F
:1004AC00F800582A0800E830F0000330F100790811
:1004BC00F301F3077808F201F2070A128A15E02615
:1004CC000A128A11710883120313DD01DD0770080B
:1004DC00DC01DC07E830F0000330F1007908F301AF
:1004EC00F3077808F201F2070A128A159C260A1201
:1004FC008A11710883120313DF01DF077008DE0114
:10050C00DE076430F0000030F1005F08F301F30700
:10051C005E08F201F2070A128A15E0260A128A1105
:10052C00710883120313E301E3077008E201E20789
:10053C006430F0000030F1005F08F301F3075E084F
:10054C00F201F2070A128A159C260A128A11710806
:10055C0083120313E101E1077008E001E0070A30A0
:10056C00F0000030F1006108F301F3076008F201BC
:10057C00F2070A128A15E0260A128A1171088312F0
:10058C000313E501E5077008E401E4070A30F00005
:10059C000030F1006108F301F3076008F201F20783
:1005AC000A128A159C260A128A11710883120313E7
:1005BC00E701E7077008E601E6075C08303E0A121F
:1005CC008A152E260A128A11831203136208303EF2
:1005DC000A128A152E260A128A1183120313640832
:1005EC00303E0A128A152E260A128A118312031320
:1005FC006608303E0A128A152E260A128A11080045
:10060C00831203133D08C0003E08C1003F08C2001E
:10061C000310410D420DC3004308C800C808031D58
:10062C00182B192B212B0030BA000030BB000030E6
:10063C00BC00CD2BCD2B3A08C0003B08C1003C08B8
:10064C00C2000310410D420DC3004308C900C90884
:10065C00031D312B322B3A2B0030BA000030BB007B
:10066C000030BC00CD2BCD2B0030C5000030C600B7
:10067C000030C70089304907C0004008C8023D0857
:10068C00C0003E08C1003F08C20010300310C20C6D
:10069C00C10CC00CFF3E031D4C2B4008C30043088B
:1006AC00C9003A08C0003B08C1003C08C200103029
:1006BC000310C20CC10CC00CFF3E031D5E2B400886
:1006CC00C3004308C9068030C0004008C905BE17E6
:1006DC00FF30BD05FF30BE050030BF05BB17FF3036
:1006EC00BA05FF30BB050030BC051830C00040080F
:1006FC00C400802B01300310C50DC60DC70DFF3E85
:10070C00031D812B3C083F02031D922B3B083E022C
:10071C00031D922B3A083D02031C952B962BA22B02
:10072C003A08BD023B08031C3B0FBE023C08031CED
:10073C003C0ABF024514A22B01300310BD0DBE0DA7
:10074C00BF0DFF3E031DA32B0130C402031DAF2BB5
:10075C00B02B802BB12B4508F0004608F100470860
:10076C00F2004808C0004008F3004908C1004108E5
:10077C00F4000A128A11B1200A128A11700883122D
:10078C000313BA007108BB007208BC00CD2B080023
:10079C00013083160313850083120313850183161E
:1007AC000313860183120313860183160313880136
:1007BC008312031388010A128A1559260A128A1108
:1007CC000A128A1501260A128A11EC2B0A128A11B6
:1007DC002C210A128A11C3300A128A151A260A12FF
:1007EC008A11831203136908F901F9076808F801E3
:1007FC00F8070A128A1159220A128A11CA300A12EF
:10080C008A151A260A128A11831203134F08BA008A
:10081C005008BB005108BC000A128A119F250A120D
:10082C008A11413083120313CB00EE30CA00CA0B7D
:10083C001D2CCB0B1D2C64008312031306124F08C6
:10084C00F0005008F1005108F2000030F300C830FD
:10085C00F4004130F5000A128A1594270A128A1105
:10086C000318392C3A2C4A2C8312031306168030A9
:10087C000A128A151A260A128A1114300A128A11BF
:10088C0013200A128A114A2C0030F000C830F100F3
:10089C004130F200831203134F08F3005008F400A8
:1008AC005108F5000A128A1594270A128A110318A6
:1008BC00602C612C852C831203134F08F000500818
:1008CC00F1005108F2000030F3009630F400423091
:1008DC00F5000A128A1594270A128A110318772C2C
:1008EC00782C852C80300A128A151A260A128A1145
:1008FC0001300A128A1113200A128A11852C003039
:10090C00F0009630F1004230F200831203134F08CE
:10091C00F3005008F4005108F5000A128A159427C8
:10092C000A128A1103189B2C9C2CEC2B8312031398
:10093C00061680300A128A151A260A128A112530D8
:10094C000A128A1113200A128A11EC2BEC2BEC2BB5
:10095C000A128A110028831203132A08B0002B08EC
:10096C00B1002C08B2000310310D320DB300330866
:10097C00B400B408031DC32CC42CCC2C0030AA002A
:10098C000030AB000030AC009E2D9E2D2D08B00029
:10099C002E08B1002F08B2000310310D320DB30038
:1009AC003308B900B908031DDC2CDD2CE52C003014
:1009BC00AA000030AB000030AC009E2D9E2D3908F3
:1009CC007B3EB0003008B4072A08B0002B08B100F9
:1009DC002C08B20010300310B20CB10CB00CFF3E5E
:1009EC00031DF12C3008B3003308B9002D08B000FA
:1009FC002E08B1002F08B20010300310B20CB10C4D
:100A0C00B00CFF3E031D032D3008B3003308B906AC
:100A1C008030B0003008B905AB17AE17FF30AD050C
:100A2C00FF30AE050030AF050030B5000030B60029
:100A3C000030B7000730B0003008B800252D2A1C54
:100A4C00282D292D3A2D2D08B5072E080311031832
:100A5C002E0A0319322DB6072F08031103182F0A7B
:100A6C000319392DB7073A2D01300310AC0CAB0C20
:100A7C00AA0CFF3E031D3B2D01300310AD0DAE0D36
:100A8C00AF0DFF3E031D432D0130B802031D4F2D4A
:100A9C00502D252D512D0930B0003008B800562DA1
:100AAC002A1C592D5A2D6B2D2D08B5072E08031114
:100ABC0003182E0A0319632DB6072F080311031808
:100ACC002F0A03196A2DB7076B2D01300310AC0CDC
:100ADC00AB0CAA0CFF3E031D6C2D01300310B70CA0
:100AEC00B60CB50CFF3E031D742D0130B802031D6E
:100AFC00802D812D562D822D3508F0003608F10001
:100B0C003708F2003408B0003008F3003908B1009F
:100B1C003108F4000A128A11B1200A128A117008E5
:100B2C0083120313AA007108AB007208AC009E2D4F
:100B3C000800831203133A08F8003B08F9003C083C
:100B4C00FA000A128A11B3210A128A117908831247
:100B5C000313C801C8077808C701C7073A08F8008B
:100B6C003B08F9003C08FA000A128A11B3210A1258
:100B7C008A11790883120313C601C6077808C501C8
:100B8C00C5070A30F0000030F1004808F301F30704
:100B9C004708F201F2070A128A152E270A128A1147
:100BAC00710883120313BE01BE077008BD01BD0797
:100BBC000A30F0000030F1004808F301F307470851
:100BCC00F201F2070A128A113D200A128A117108E9
:100BDC0083120313C801C8077008C701C7070A307E
:100BEC00F0000030F1004808F301F3074708F20168
:100BFC00F2070A128A152E270A128A11710883121B
:100C0C000313C001C0077008BF01BF070A30F00012
:100C1C000030F1004808F301F3074708F201F2072E
:100C2C000A128A113D200A128A11710883120313C9
:100C3C00C801C8077008C701C7070A30F0000030A8
:100C4C00F1004808F301F3074708F201F2070A1212
:100C5C008A152E270A128A11710883120313C201F6
:100C6C00C2077008C101C1073A08A3003B08A400E1
:100C7C003C08A5004608FC01FC074508FB01FB07E6
:100C8C000A128A1572260A128A117B08F8007C084F
:100C9C00F9007D08FA000A128A150E260A128A112A
:100CAC00780883120313A6007908A7007A08A80015
:100CBC000A128A11BA260A128A1183120313230804
:100CCC00D5002408D6002508D7005508AD005608D5
:100CDC00AE005708AF000030AA002030AB00413006
:100CEC00AC000A128A11B1240A128A11831203135E
:100CFC002A08F8002B08F9002C08FA000A128A11AD
:100D0C00B3210A128A11790883120313C401C40790
:100D1C007808C301C3074108303E0A128A152E26F3
:100D2C000A128A11831203133F08303E0A128A15E5
:100D3C002E260A128A11831203133D08303E0A1222
:100D4C008A152E260A128A112E300A128A152E2680
:100D5C000A128A11831203134308303E0A128A15B1
:100D6C002E260A128A110800831203132308A900E5
:100D7C002408AA002508AB0003102A0D2B0DAC008B
:100D8C002C08AF002608A9002708AA002808AB00E9
:100D9C0003102A0D2B0DAC002C08AE002F08031DE0
:100DAC00D82EE92E2E082F020318DD2EDE2EF12E62
:100DBC002F03FF3A2E07A90019302902031CE72E36
:100DCC00E82EF12EE92E2608A3002708A4002808F7
:100DDC00A500FF2FFF2F2E08031DF52E052F2F0822
:100DEC002E020318FA2EFB2E062F2E03FF3A2F0786
:100DFC00A90019302902031C042F052F062FFF2FE1
:100E0C000630A9002908AD00A51F0D2F0E2F0F2F9E
:100E1C00AD17A81F122F132F142F2D17A417FF3047
:100E2C00A305FF30A4050030A505A717FF30A605C4
:100E3C00FF30A7050030A8052E082F020318272F16
:100E4C00282F592F292F01300310A60DA70DA80DFF
:100E5C00FF3E031D2A2F0130AE022E082F06031968
:100E6C00382F392F512F0130AD022D080739031DB2
:100E7C00402F412F292F512F512F512F013003106B
:100E8C00A50CA40CA30CFF3E031D452F0130A9009B
:100E9C002908AF07512F2F082E06031D562F572F49
:100EAC00442F902F902F2F082E0203185E2F5F2FA8
:100EBC00902F602F01300310A30DA40DA50DFF3E44
:100ECC00031D612F0130AF022E082F0603196F2F5F
:100EDC00702F882F0130AD022D080739031D772F95
:100EEC00782F602F882F882F882F01300310A80CA3
:100EFC00A70CA60CFF3E031D7C2F0130A90029086E
:100F0C00AE07882F2F082E06031D8D2F8E2F7B2FBB
:100F1C00902F902FAD1F932F942FA52FFF30A3064A
:100F2C00FF30A406FF30A5060130A30700300318DC
:100F3C000130A407003003180130A507A52F2D1F81
:100F4C00A82FA92FBA2FFF30A606FF30A706FF3017
:100F5C00A8060130A607003003180130A70700309F
:100F6C0003180130A807BA2FAD012308A6072408DF
:100F7C0003110318240A0319C42FA707250803110A
:100F8C000318250A0319CB2FA807A81FCE2FCF2F84
:100F9C00E32FFF30A606FF30A706FF30A80601306E
:100FAC00A607003003180130A707003003180130E2
:100FBC00A807AD010314AD0DE32F2608F000270898
:100FCC00F1002808F2002F08A9002908F3002D08C9
:100FDC00AA002A08F4000A128A11B1200A128A11F6
:100FEC00700883120313A3007108A4007208A500F3
:100FFC00FF2F080008308A000408840A8207003496
:10100C00543465346D3470346534723461347434F2
:10101C007534723465342D344E346F3472346D340F
:10102C0061346C340034543465346D34703465344C
:10103C007234613474347534723465342D344C34F8
:10104C006F34773420340034543465346D34703458
:10105C0065347234613474347534723465342D34BF
:0A106C0048346934673468340034F6
:101C02008030831603139F00080064008001840A59
:101C12000406031900340406072E7A0879047804AE
:101C22000319142E152E182E8030FA06182E192E8E
:101C32000800F2007208831203138800861006154A
:101C42004130F100EE30F000F00B252EF10B252E85
:101C520064008312031306110800F2007208831253
:101C620003138800861406154130F100EE30F000AF
:101C7200F00B392EF10B392E640083120313061177
:101C820008007808F0007908F100F2018E30FB00BC
:101C92007B08F300F4010A128A11B1200A128A1594
:101CA2007008F8007108F9007208FA00582E08004E
:101CB20001300A128A151A260A128A1506300A12E9
:101CC2008A151A260A128A150C300A128A151A2641
:101CD2000A128A1538300A128A151A260A128A1529
:101CE200080083120313A201FC1F782E792E822E84
:101CF200FB09FC09FB0A0319FC0AA2010314A20D49
:101D0200822E7B08F0007C08F100F2018E30A000E8
:101D12002008F3002208A1002108F4000A128A1107
:101D2200B1200A128A157008FB007108FC007208C3
:101D3200FD009B2E0800710870040319A12EA22E2B
:101D4200D82EF5010314F50DB22E01300310F00D5B
:101D5200F10DFF3E031DA72E0130F4007408F507B4
:101D6200B22EF11FB52EB62EA62EB82EB82E7108A1
:101D72007302031DBE2E70087202031CC12EC22EF6
:101D8200C92E7008F2027108031CF303F302C92E74
:101D920001300310F10CF00CFF3E031DCA2E01307E
:101DA200F502031DD52ED62EB82ED82ED82E7308A6
:101DB200F101F1077208F001F007DF2E0800F501CA
:101DC200F601710870040319E72EE82E262FF70199
:101DD2000314F70DF82E01300310F00DF10DFF3E44
:101DE200031DED2E0130F4007408F707F82EF11FE1
:101DF200FB2EFC2EEC2EFE2EFE2E01300310F50DD6
:101E0200F60DFF3E031DFF2E71087302031D0B2FFB
:101E120070087202031C0E2F0F2F172F7008F20288
:101E22007108031CF303F3027514172F013003101A
:101E3200F10CF00CFF3E031D182F0130F702031DB9
:101E4200232F242FFE2E262F262F7608F101F107AD
:101E52007508F001F0072D2F0800F601F31F322F4D
:101E6200332F3C2FF209F309F20A0319F30AF601A0
:101E72000314F60D3C2FF11F3F2F402F462FF00980
:101E8200F109F00A0319F10A462F710870040319C7
:101E92004B2F4C2F822FF5010314F50D5C2F0130CF
:101EA2000310F00DF10DFF3E031D512F0130F40020
:101EB2007408F5075C2FF11F5F2F602F502F622FE0
:101EC200622F71087302031D682F70087202031CCF
:101ED2006B2F6C2F732F7008F2027108031CF3032F
:101EE200F302732F01300310F10CF00CFF3E031DBF
:101EF200742F0130F502031D7F2F802F622F822F56
:101F0200822F7608031D862F8C2FF209F309F20A1D
:101F12000319F30A8C2F7308F101F1077208F0011B
:101F2200F007932F0800F21F972F982FBE2F003033
:101F3200F6000030F7008030F8007009F9007109EE
:101F4200FA007209FB00F90A0319FA0A0319FB0ADB
:101F52007908F6077A0803187A0FB02FB12FF7071E
:101F62007B0803187B0FB62FB72FF8077608F0000F
:101F72007708F1007808F200BE2FF51FC12FC22F9B
:101F8200E82F0030F6000030F7008030F8007309C7
:101F9200F9007409FA007509FB00F90A0319FA0A33
:101FA2000319FB0A7908F6077A0803187A0FDA2F61
:101FB200DB2FF7077B0803187B0FE02FE12FF807D1
:101FC2007608F3007708F4007808F500E82F8030EF
:101FD200F2068030F50675087202031DF62F7408AA
:101FE2007102031DF62F730870020318F92FFA2FDE
:0E1FF200FC2F0310FF2F0314FF2FFF2F0800FA
:00000001FF
